:100000000C942A000C9463090C949E090C94D90951
:100010000C9447000C9447000C9447000C94470044
:100020000C9447000C9447000C94030B0C943E0B6B
:100030000C9447000C9447000C9447000C94470024
:100040000C9447000C9447000C9447000C94470014
:100050000C94470011241FBECFE5D8E0DEBFCDBF12
:1000600010E0A0E6B0E0E6EFFFE102C005900D92DF
:10007000A836B107D9F720E0A8E6B0E001C01D928C
:10008000A53BB207E1F70E949F050C94F90F0C9471
:100090000000CF93DF93CDB7DEB7809160009091E1
:1000A0006100A0916200B091630026E030E040E082
:1000B00050E0BC01CD010E94D70FDC01CB01892BA0
:1000C0008A2B8B2B09F0B3C080916900882F90E0B8
:1000D0008130910591F082309105D9F0892B09F09A
:1000E00024C030919800909197008091960021E073
:1000F000432F692F0E942C0518C0309194009091D5
:1001000093008091920021E0432F692F0E942C05DB
:100110000CC030918700909186008091850021E08D
:10012000432F692F0E942C05000080916B00909155
:100130006C00A0916D00B0916E000196A11DB11DE3
:1001400083709927AA27BB2780936B0090936C003C
:10015000A0936D00B0936E0080916B0090916C0045
:10016000A0916D00B0916E008C599F4FFC01808171
:100170008093690080916900882F90E0813091051B
:1001800041F18230910589F1892B09F050C03091FD
:100190009800909197008091960020E0432F692F5E
:1001A0000E942C0530917B0090917A00809179001B
:1001B00020E0432F692F0E942C05309183009091FD
:1001C00082008091810021E0432F692F0E942C053D
:1001D0002EC030919400909193008091920020E085
:1001E000432F692F0E942C0522C0309187009091E7
:1001F00086008091850020E0432F692F0E942C0506
:1002000030918300909182008091810020E0432F03
:10021000692F0E942C0530917B0090917A0080918B
:10022000790021E0432F692F0E942C050000000077
:10023000DF91CF910895CF93DF93CDB7DEB7809153
:100240006F008F5F80936F0080916900882F90E02E
:1002500099230CF46EC18230910524F0029709F4C1
:10026000DCC067C180916F00882361F430917B000E
:1002700090917A008091790020E0432F692F0E94AD
:100280002C055AC180916F008530B9F430917B0004
:1002900090917A008091790021E0432F692F0E948C
:1002A0002C0530919800909197008091960021E064
:1002B000432F692F0E942C053FC180916F0085302C
:1002C00098F080916F008A3078F490917E00809150
:1002D0007D00692F0E948A05909193008091920081
:1002E000692F0E948A0598C080916F008A3069F555
:1002F00030917F0090917E0080917D0021E0432F1E
:10030000692F0E942C053091940090919300809168
:10031000920021E0432F692F0E942C053091830029
:10032000909182008091810020E0432F692F0E94EC
:100330002C0530918700909186008091850020E007
:10034000432F692F0E942C05F7C080916F008F30DA
:10035000B9F430918300909182008091810021E076
:10036000432F692F0E942C053091870090918600C1
:100370008091850021E0432F692F0E942C05DCC06D
:1003800080916F008F3098F080916F00843178F405
:1003900090917E0080917D00692F0E948A05909146
:1003A000930080919200692F0E948A0535C0809148
:1003B0006F00843109F0C0C01092690010926B0088
:1003C00010926C0010926D0010926E0030918300BC
:1003D000909182008091810021E0432F692F0E943B
:1003E0002C0530917B0090917A008091790020E07B
:1003F000432F692F0E942C0530919800909197000F
:100400008091960020E0432F692F0E942C051092C6
:10041000680010926F0090C08FC080916F00813093
:1004200011F530917B0090917A008091790021E064
:10043000432F692F0E942C053091830090918200F8
:100440008091810020E0432F692F0E942C0530917C
:100450008700909186008091850020E0432F692FCE
:100460000E942C056BC080916F008530B9F43091EB
:100470008300909182008091810021E0432F692FB9
:100480000E942C0530918700909186008091850014
:1004900021E0432F692F0E942C0550C080916F00EE
:1004A000853098F080916F008A3078F490917E00CA
:1004B00080917D00692F0E948A0590919300809120
:1004C0009200692F0E948A0539C080916F008A309E
:1004D000A9F51092690010926B0010926C001092B6
:1004E0006D0010926E003091830090918200809197
:1004F000810021E0432F692F0E942C0530917B0061
:1005000090917A008091790020E0432F692F0E941A
:100510002C0530919800909197008091960020E0F2
:10052000432F692F0E942C051092680010926F00D3
:1005300005C01092680003C0000001C00000000068
:10054000DF91CF910895CF93DF93CDB7DEB7809140
:10055000600090916100A0916200B09163000196EB
:10056000A11DB11D8093600090936100A093620073
:10057000B093630080916800882371F480916900D2
:10058000813039F49091930080919200692F0E94FC
:100590008A050E94490024C0809168008130F1F4EE
:1005A00080916A00882371F42091910090918A00D3
:1005B0008091890040E950E0692F0E94BA0481E0EF
:1005C00080936A0080919000882329F4109268003B
:1005D00010926A0005C00E941B0102C010926800C0
:1005E0000000DF91CF910895CF93DF9300D0CDB776
:1005F000DEB71A82198205C089819A8101969A8391
:10060000898389819A8188389341B4F38091680005
:10061000882339F480916900823019F081E0809359
:10062000680000000F900F90DF91CF910895CF9355
:10063000DF93CDB7DEB781E08093980081E08093AF
:10064000940081E08093870081E08093830081E0C3
:1006500080937F0081E080937B001092960010923F
:1006600092001092850081E08093810081E0809368
:100670007D0081E08093790081E08093970082E0A3
:100680008093930084E08093860081E080938200D1
:1006900082E080937E0084E080937A0081E0809302
:1006A000990081E08093950081E08093880081E04B
:1006B0008093840081E08093800081E080937C00BF
:1006C00083E08093890084E080938A0084EF92E045
:1006D00090938F0080938E001092910010928B0067
:1006E00082E080938D0010928C0088EE93E0A0E071
:1006F000B0E080939C0090939D00A0939E00B093E7
:100700009F0083EA92E09093A1008093A0009091D3
:10071000970080919600692F0E9416059091930092
:1007200080919200692F0E94160590918600809119
:100730008500692F0E9416059091820080918100AA
:10074000692F0E94160590917E0080917D00692F8F
:100750000E94160590917A0080917900692F0E947D
:10076000160520918B0080918E0090918F006091F2
:100770008D0030918C00AC01832F0E94F2033091E8
:100780009800909197008091960020E0432F692F68
:100790000E942C0530917B0090917A008091790025
:1007A00020E0432F692F0E942C052091A00030915A
:1007B000A10080919C0090919D00A0919E00B0911D
:1007C0009F00A901BC01CD010E945A0D0000DF91DC
:1007D000CF910895CF93DF93CDB7DEB780E00E942D
:1007E000140AFCCFCF93DF9300D000D000D0CDB758
:1007F000DEB78A836B835D834C832E8319828E815F
:10080000823018F081E08983ABC08A81882F90E024
:1008100081309105D1F18230910509F468C0892BAE
:1008200009F096C08E81813019F08E81823099F462
:1008300040E064E083E00E94A705882349F48C81AE
:100840009D81AC016B8180E00E94C6088823D9F0AD
:1008500081E0898318C08E81882309F07CC042E042
:1008600064E083E00E94A705882351F48C819D8178
:10087000AC016B8180E00E94C608882309F46BC03C
:1008800081E0898368C0000066C08E81813019F0E4
:100890008E81823099F440E068E083E00E94A705F1
:1008A000882349F48C819D81AC016B8181E00E9499
:1008B000C6088823D1F081E0898317C08E81882300
:1008C00009F04BC042E068E083E00E94A70588235E
:1008D00049F48C819D81AC016B8181E00E94C60846
:1008E0008823D9F181E0898338C0000036C08E8129
:1008F000813019F08E81823099F440E064E081E02B
:100900000E94A705882349F48C819D81AC016B81ED
:1009100082E00E94C6088823C9F081E0898316C05E
:100920008E818823E1F442E064E081E00E94A70523
:10093000882349F48C819D81AC016B8182E00E9407
:10094000C608882361F081E0898309C0000007C0E0
:1009500081E0898305C0000003C0000001C00000E1
:10096000898126960FB6F894DEBF0FBECDBFDF910A
:10097000CF910895CF93DF9300D000D01F92CDB7D1
:10098000DEB789836A835C834B832D838B819C8153
:10099000AC016A8189810E94D707882319F48D816F
:1009A000823010F081E03AC08B819C81FC01808113
:1009B000813049F48D81882331F48B819C8121E041
:1009C000FC0120832AC08B819C81FC0180818823CB
:1009D00041F48D81882329F48B819C81FC01108254
:1009E0001CC08B819C81FC018081813041F48D8110
:1009F000813029F48B819C81FC0110820EC08B8197
:100A00009C81FC018081882341F48D81813029F40F
:100A10008B819C8121E0FC01208380E00F900F906E
:100A20000F900F900F90DF91CF910895CF93DF93A8
:100A300000D0CDB7DEB789836A8341E06A818981BE
:100A40000E94A705882311F081E001C080E00F908B
:100A50000F90DF91CF910895CF93DF9300D000D016
:100A6000CDB7DEB789836A834B832C838B81823039
:100A700018F48C81823010F081E045C08B81813088
:100A800071F48C81882359F441E06A8189810E9444
:100A90002407882311F081E036C080E034C08B81C8
:100AA000813071F48C81813059F440E06A81898110
:100AB0000E942407882311F081E025C080E023C034
:100AC0008B81882371F48C81882359F440E06A81FA
:100AD00089810E942407882311F081E014C080E0FE
:100AE00012C08B81882371F48C81813059F441E0EC
:100AF0006A8189810E942407882311F081E003C064
:100B000080E001C081E00F900F900F900F90DF9177
:100B1000CF910895CF93DF9300D0CDB7DEB789830F
:100B20006A836A8189810E946F08882311F081E0BD
:100B300001C080E00F900F90DF91CF910895CF9387
:100B4000DF93CDB7DEB70E9417030E94EA03CF936D
:100B5000DF9300D000D0CDB7DEB78A836B834C83A0
:100B600019828A81843018F48C81833018F081E0F6
:100B7000898362C18A81882F90E08130910509F4D0
:100B80005FC0823091051CF4892B49F04BC1823043
:100B9000910509F4A6C0039709F4F4C043C18C8100
:100BA0008823C9F48AE390E02AE330E0F901208148
:100BB000322F2B8120952323FC0120838BE390E0AF
:100BC0002BE330E0F9012081322F2B812095232364
:100BD000FC0120832AC18C81813059F48AE390E0A2
:100BE0002AE330E0F90130812B81232BFC012083A3
:100BF0001CC18C81823009F018C18AE390E02AE39D
:100C000030E0F9012081322F2B8120952323FC0134
:100C100020838BE390E02BE330E0F90130812B81DE
:100C2000232BFC01208389E390E029E330E0F901E4
:100C30002081322F2B8120952323FC012083F5C0B6
:100C40008C818823C9F487E390E027E330E0F90141
:100C50002081322F2B8120952323FC01208388E3E0
:100C600090E028E330E0F9012081322F2B8120959C
:100C70002323FC012083DBC08C81813059F487E37E
:100C800090E027E330E0F90130812B81232BFC0138
:100C90002083CDC08C81823009F0C9C087E390E009
:100CA00027E330E0F9012081322F2B812095232387
:100CB000FC01208388E390E028E330E0F9013081F3
:100CC0002B81232BFC01208386E390E026E330E098
:100CD000F9012081322F2B8120952323FC012083D1
:100CE000A6C08C818823C9F484E390E024E330E03B
:100CF000F9012081322F2B8120952323FC012083B1
:100D000085E390E025E330E0F9012081322F2B814B
:100D100020952323FC0120838CC08C81813059F4E1
:100D200084E390E024E330E0F90130812B81232B30
:100D3000FC0120837EC08C81823009F07AC084E37C
:100D400090E024E330E0F9012081322F2B812095BF
:100D50002323FC01208385E390E025E330E0F901C3
:100D600030812B81232BFC01208383E390E023E35C
:100D700030E0F9012081322F2B8120952323FC01C3
:100D8000208357C08C818823C9F481E390E021E35C
:100D900030E0F9012081322F2B8120952323FC01A3
:100DA000208382E390E022E330E0F9012081322FBA
:100DB0002B8120952323FC0120833DC08C81813031
:100DC00059F481E390E021E330E0F90130812B8197
:100DD000232BFC0120832FC08C81823061F581E3BD
:100DE00090E021E330E0F9012081322F2B81209522
:100DF0002323FC01208382E390E022E330E0F90129
:100E000030812B81232BFC01208380E390E020E3C1
:100E100030E0F9012081322F2B8120952323FC0122
:100E2000208309C081E0898307C0000005C000005D
:100E300003C0000001C0000089810F900F900F9047
:100E40000F90DF91CF910895CF93DF9300D000D022
:100E5000CDB7DEB78A836B834C8319828A81843055
:100E600018F081E089839BC08A81882F90E08130CF
:100E7000910579F1823091051CF4892B49F08CC0E1
:100E80008230910509F446C0039709F464C084C018
:100E90008C81813059F48BE390E02BE330E0F90151
:100EA00030812B81232BFC01208379C08C81882306
:100EB00069F48BE390E02BE330E0F9012081322FDD
:100EC0002B8120952323FC01208369C081E0898345
:100ED00066C08C81813059F488E390E028E330E0EB
:100EE000F90130812B81232BFC01208358C08C8198
:100EF000882369F488E390E028E330E0F901208159
:100F0000322F2B8120952323FC01208348C081E0D0
:100F1000898345C08C81813059F485E390E025E3D5
:100F200030E0F90130812B81232BFC01208337C075
:100F30008C81882369F485E390E025E330E0F901B2
:100F40002081322F2B8120952323FC01208327C071
:100F500081E0898324C08C81813059F482E390E060
:100F600022E330E0F90130812B81232BFC01208327
:100F700016C08C81882369F482E390E022E330E09C
:100F8000F9012081322F2B8120952323FC0120831E
:100F900006C081E0898303C081E0898300008981E4
:100FA0000F900F900F900F90DF91CF910895CF93F6
:100FB000DF93CDB7DEB727970FB6F894DEBF0FBE2D
:100FC000CDBF8C836D835F834E8319821A8281E04B
:100FD0008B8306C08B81880F8B838A818F5F8A8386
:100FE0009B818D8189238823A9F38C81843018F01B
:100FF00081E089836AC08C81882F90E081309105DF
:1010000011F1823091051CF4892B41F05BC08230D4
:10101000910571F1039709F440C054C089E390E051
:10102000FC018081882F90E02A81222F30E002C0CD
:10103000959587952A95E2F7282F21708E819F81BB
:10104000FC01208342C086E390E0FC018081882F70
:1010500090E02A81222F30E002C0959587952A954D
:10106000E2F7282F21708E819F81FC0120832DC003
:1010700083E390E0FC018081882F90E02A81222F79
:1010800030E002C0959587952A95E2F7282F2170C8
:101090008E819F81FC01208318C080E390E0FC01D9
:1010A0008081882F90E02A81222F30E002C0959520
:1010B00087952A95E2F7282F21708E819F81FC0168
:1010C000208303C081E089830000898127960FB6C1
:1010D000F894DEBF0FBECDBFDF91CF910895CF93BF
:1010E000DF9300D01F92CDB7DEB78A836B8319825E
:1010F0008A81843018F081E0898341C08A81882FF9
:1011000090E081309105B9F0823091051CF4892B73
:1011100039F032C082309105C9F0039711F12CC02B
:101120008BE390E02BE330E0F90130812B81232722
:10113000FC01208324C088E390E028E330E0F9013B
:1011400030812B812327FC01208319C085E390E0A7
:1011500025E330E0F90130812B812327FC01208336
:101160000EC082E390E022E330E0F90130812B8170
:101170002327FC01208303C081E08983000089814B
:101180000F900F900F90DF91CF910895CF93DF9341
:1011900000D000D01F92CDB7DEB78A836B835D830A
:1011A0004C8319828A81833060F48B81843048F4C7
:1011B0008A81823049F48B81882319F08B818130B8
:1011C00019F481E0898376C078948A81882F90E031
:1011D0008130910519F18230910509F441C0892BC4
:1011E00009F065C085E590E025E530E0F901208152
:1011F000322F3C7F2B81232BFC0120838C819D810E
:101200009093AE008093AD008BE590E02BE530E04D
:10121000F90120812064FC0120834CC085E590E029
:1012200025E530E0F9012081422F437F2B81222FD9
:1012300030E0220F331F220F331F242BFC012083A9
:101240008C819D819093AC008093AB008BE590E006
:101250002BE530E0F90120812068FC0120832AC0C1
:1012600084E590E024E530E0F9012081422F4F7BB6
:101270002B81222F30E00024369527950794369550
:1012800027950794322F202D242BFC0120838C815D
:101290009D819093AA008093A9008BE590E02BE5B7
:1012A00030E0F90120812062FC01208303C081E04D
:1012B0008983000089810F900F900F900F900F90FD
:1012C000DF91CF9108951F920F9200905F000F92CF
:1012D00011242F933F934F935F936F937F938F933B
:1012E0009F93AF93BF93EF93FF93CF93DF93CDB7CC
:1012F000DEB78091AD009091AE00FC0109958AE5C2
:1013000090E02AE530E0F90120812064FC0120838F
:1013100078940000DF91CF91FF91EF91BF91AF9151
:101320009F918F917F916F915F914F913F912F91FD
:101330000F9000925F000F901F9018951F920F92D0
:1013400000905F000F9211242F933F934F935F9370
:101350006F937F938F939F93AF93BF93EF93FF937D
:10136000CF93DF93CDB7DEB78091AB009091AC0007
:10137000FC0109958AE590E02AE530E0F901208139
:101380002068FC01208378940000DF91CF91FF91C9
:10139000EF91BF91AF919F918F917F916F915F91ED
:1013A0004F913F912F910F9000925F000F901F90EF
:1013B00018951F920F9200905F000F9211242F93A7
:1013C0003F934F935F936F937F938F939F93AF93CD
:1013D000BF93EF93FF93CF93DF93CDB7DEB78091A9
:1013E000A9009091AA00FC0109958AE590E02AE500
:1013F00030E0F90120812062FC0120837894000014
:10140000DF91CF91FF91EF91BF91AF919F918F911C
:101410007F916F915F914F913F912F910F9000922B
:101420005F000F901F901895CF93DF9300D0CDB73A
:10143000DEB78A8319828A81882379F48A81813090
:1014400061F48A81823049F48A81833031F48A815F
:10145000863019F48A81873019F081E089831EC0B3
:1014600085E590E025E530E0F9012081422F4F78B5
:101470002A81222F30E022953295307F3227207F3B
:101480003227242BFC01208385E590E025E530E020
:10149000F90120812068FC012083889589810F90C3
:1014A0000F90DF91CF9108950F931F93CF93DF9308
:1014B000CDB7DEB728970FB6F894DEBF0FBECDBF0D
:1014C0008A836B834C833E832D8318870F83198215
:1014D0008B81843060F48B81882319F48C81843073
:1014E00030F48B81833030F48C81813019F481E0C9
:1014F00089835EC083E590E023E530E0F901208137
:10150000422F4F7B2B81222F30E021703327002484
:10151000369527950794369527950794322F202DD9
:10152000242BFC01208383E590E023E530E0F901E2
:101530002081422F477F2B812695222F30E021707A
:101540003327220F331F220F331F220F331F242B69
:10155000FC0120838F8198859093B4008093B30021
:101560008D819E819093B2008093B10083E590E0DD
:1015700023E530E0F9012081422F4F7C2C81222F7E
:1015800030E022953295307F3227207F3227242B7E
:10159000FC01208382E590E02A81FC01208389E51B
:1015A00090E029E530E0F90120812160FC012083F1
:1015B000898128960FB6F894DEBF0FBECDBFDF91AC
:1015C000CF911F910F910895CF93DF9300D0CDB7A6
:1015D000DEB78A8319828A81883018F081E0898396
:1015E0000CC083E590E023E530E0F9012081322F43
:1015F000387F2A81232BFC01208389810F900F9053
:10160000DF91CF9108951F920F9200905F000F928B
:1016100011242F933F934F935F936F937F938F93F7
:101620009F93AF93BF93EF93FF93CF93DF93CDB788
:10163000DEB78091B3009091B400FC01099588E574
:1016400090E028E530E0F90120812260FC01208350
:1016500078940000DF91CF91FF91EF91BF91AF910E
:101660009F918F917F916F915F914F913F912F91BA
:101670000F9000925F000F901F9018951F920F928D
:1016800000905F000F9211242F933F934F935F932D
:101690006F937F938F939F93AF93BF93EF93FF933A
:1016A000CF93DF93CDB7DEB78091B1009091B200B8
:1016B000FC01099588E590E028E530E0F9012081FA
:1016C0002160FC01208378940000DF91CF91FF918D
:1016D000EF91BF91AF919F918F917F916F915F91AA
:1016E0004F913F912F910F9000925F000F901F90AC
:1016F0001895CF93DF93CDB7DEB7809170009091AE
:101700007100A0917200B09173000196A11DB11DEE
:101710008093700090937100A0937200B093730057
:1017200082E590E020917800FC01208320917000F8
:10173000309171004091720050917300809174005B
:1017400090917500A0917600B09177002817390725
:101750004A075B0771F410927000109271001092AA
:101760007200109273008091AF009091B000FC0164
:1017700009950000DF91CF9108958F929F92AF92CB
:10178000BF92CF92DF92EF92FF920F931F93CF936E
:10179000DF93CDB7DEB763970FB6F894DEBF0FBE09
:1017A000CDBF6E877F87888B998B5B8B4A8B6E85CD
:1017B0007F85888999890E94B30EDC01CB0120E0E6
:1017C00030E04AE754E4BC01CD010E94120EDC0176
:1017D000CB0189839A83AB83BC831D828A899B89D1
:1017E000CC01A0E0B0E0BC01CD010E94B30EDC0151
:1017F000CB0120E034E244E759E4BC01CD010E9472
:10180000120EDC01CB018E839F83A887B9878E815E
:101810009F81A885B98520E030E040E853E4BC0111
:10182000CD010E946A0FDC01CB018A879B87AC87C0
:10183000BD878A859B85AC85BD85BC01CD010E9495
:10184000840EDC01CB01BC01CD010E94B30E7B01F3
:101850008C0189819A81AB81BC819C01AD01C80159
:10186000B7010E940D0E882371F481E090E0A0E0A2
:10187000B0E08093740090937500A0937600B093CD
:1018800077001D8203C18A859B85AC85BD85BC011F
:10189000CD010E94840EDC01CB01BC01CD010E9470
:1018A000B30E7B018C0189819A81AB81BC819C0143
:1018B000AD01C801B7010E94650F181684F581E0DB
:1018C00090E0A0E0B0E08093740090937500A09346
:1018D0007600B09377008A859B85AC85BD8529818C
:1018E0003A814B815C81BC01CD010E94A00DDC01DD
:1018F000CB017C018D018E819F81A885B9859C01DA
:10190000AD01C801B7010E94120EDC01CB01BC0180
:10191000CD010E94840EDC01CB018D83B7C08A8586
:101920009B85AC85BD85BC01CD010E94840EDC0188
:10193000CB01BC01CD010E94B30E7B018C018981DA
:101940009A81AB81BC819C01AD01C801B7010E94A5
:101950000D0E88230CF09AC089819A81AB81BC81DD
:101960002A853B854C855D85BC01CD010E94120E08
:10197000DC01CB016C017D0189819A81AB81BC8145
:10198000BC01CD010E94840E4B015C018A859B85C0
:10199000AC85BD85BC01CD010E94840E9B01AC01CC
:1019A000C501B4010E94D70FDA01C901BC01CD0104
:1019B0000E94B30EDC01CB019C01AD01C701B60151
:1019C0000E940D0E8823A9F489819A81AB81BC8184
:1019D0002A853B854C855D85BC01CD010E94120E98
:1019E000DC01CB01BC01CD010E94840EDC01CB01E6
:1019F00017C089819A81AB81BC812A853B854C8542
:101A00005D85BC01CD010E94120EDC01CB01BC0141
:101A1000CD010E94840EDC01CB010196A11DB11DF8
:101A20008093740090937500A0937600B093770034
:101A300089819A81AB81BC812E813F8148855985FE
:101A4000BC01CD010E94120EDC01CB016C017D01B5
:101A50008091740090917500A0917600B09177000C
:101A6000BC01CD010E94B30EDC01CB019C01AD0194
:101A7000C701B6010E94120EDC01CB01BC01CD01F1
:101A80000E94840EDC01CB0181958D838D8163964C
:101A90000FB6F894DEBF0FBECDBFDF91CF911F917F
:101AA0000F91FF90EF90DF90CF90BF90AF909F90FD
:101AB0008F9008950F931F93CF93DF9300D000D0A2
:101AC00000D0CDB7DEB769837A838B839C835E8336
:101AD0004D838D819E819093B0008093AF0089E704
:101AE0009BE09093B2008093B10009E71BE029E7E7
:101AF0003BE040E060E080E00E94540A89819A81E6
:101B0000AB81BC8140E054E0BC01CD010E94BD0B23
:101B10008093780082E590E020917800FC0120839A
:101B200085E00E94E40A7894000026960FB6F894A7
:101B3000DEBF0FBECDBFDF91CF911F910F910895F2
:101B40005058BB27AA270E94B80D0C942B0F0E9457
:101B50001D0F38F00E94240F20F039F49F3F19F434
:101B600026F40C941A0F0EF4E095E7FB0C94140F76
:101B7000E92F0E943C0F58F3BA17620773078407D6
:101B8000950720F079F4A6F50C945E0F0EF4E0951D
:101B90000B2EBA2FA02D0B01B90190010C01CA0127
:101BA000A0011124FF27591B99F0593F50F4503ED2
:101BB00068F11A16F040A22F232F342F4427585FC4
:101BC000F3CF469537952795A795F0405395C9F7DC
:101BD0007EF41F16BA0B620B730B840BBAF0915094
:101BE000A1F0FF0FBB1F661F771F881FC2F70EC033
:101BF000BA0F621F731F841F48F487957795679506
:101C0000B795F7959E3F08F0B0CF9395880F08F0F1
:101C10009927EE0F9795879508950E94F00E08F486
:101C200081E008950E94260E0C942B0F0E94240F31
:101C300058F00E941D0F40F029F45F3F29F00C94EA
:101C4000140F51110C945F0F0C941A0F0E943C0F4B
:101C500068F39923B1F3552391F3951B550BBB27DB
:101C6000AA2762177307840738F09F5F5F4F220F20
:101C7000331F441FAA1FA9F335D00E2E3AF0E0E817
:101C800032D091505040E695001CCAF72BD0FE2F61
:101C900029D0660F771F881FBB1F261737074807F5
:101CA000AB07B0E809F0BB0B802DBF01FF279358AD
:101CB0005F4F3AF09E3F510578F00C94140F0C944E
:101CC0005F0F5F3FE4F3983ED4F386957795679571
:101CD000B795F7959F5FC9F7880F911D96958795E2
:101CE00097F90895E1E0660F771F881FBB1F621701
:101CF00073078407BA0720F0621B730B840BBA0BBF
:101D0000EE1F88F7E09508950E94440F88F09F57D2
:101D100098F0B92F9927B751B0F0E1F0660F771F0F
:101D2000881F991F1AF0BA95C9F714C0B13091F005
:101D30000E945E0FB1E008950C945E0F672F782F1C
:101D40008827B85F39F0B93FCCF3869577956795CA
:101D5000B395D9F73EF490958095709561957F4F36
:101D60008F4F9F4F0895E89409C097FB3EF49095DC
:101D70008095709561957F4F8F4F9F4F9923A9F064
:101D8000F92F96E9BB279395F695879577956795F3
:101D9000B795F111F8CFFAF4BB0F11F460FF1BC037
:101DA0006F5F7F4F8F4F9F4F16C0882311F096E9CA
:101DB00011C0772321F09EE8872F762F05C0662378
:101DC00071F096E8862F70E060E02AF09A95660F31
:101DD000771F881FDAF7880F9695879597F90895EA
:101DE000990F0008550FAA0BE0E8FEEF161617062C
:101DF000E807F907C0F012161306E407F50798F094
:101E0000621B730B840B950B39F40A2661F0232BAC
:101E1000242B252B21F408950A2609F4A140A69528
:101E20008FEF811D811D089597F99F6780E870E00D
:101E300060E008959FEF80EC089500240A94161640
:101E4000170618060906089500240A9412161306A8
:101E5000140605060895092E0394000C11F4882336
:101E600052F0BB0F40F4BF2B11F460FF04C06F5F52
:101E70007F4F8F4F9F4F089557FD9058440F551F28
:101E800059F05F3F71F04795880F97FB991F61F0FC
:101E90009F3F79F087950895121613061406551F73
:101EA000F2CF4695F1DF08C0161617061806991FDF
:101EB000F1CF86957105610508940895E894BB27D4
:101EC00066277727CB0197F908950E94F00E08F452
:101ED0008FEF08950E947D0F0C942B0F0E941D0F11
:101EE00038F00E94240F20F0952311F00C94140F69
:101EF0000C941A0F11240C945F0F0E943C0F70F386
:101F0000959FC1F3950F50E0551F629FF001729F9E
:101F1000BB27F00DB11D639FAA27F00DB11DAA1FAD
:101F2000649F6627B00DA11D661F829F2227B00DFA
:101F3000A11D621F739FB00DA11D621F839FA00D85
:101F4000611D221F749F3327A00D611D231F849FD5
:101F5000600D211D822F762F6A2F11249F5750402C
:101F60009AF0F1F088234AF0EE0FFF1FBB1F661FA7
:101F7000771F881F91505040A9F79E3F510580F070
:101F80000C94140F0C945F0F5F3FE4F3983ED4F36E
:101F9000869577956795B795F795E7959F5FC1F714
:101FA000FE2B880F911D9695879597F90895A1E2CC
:101FB0001A2EAA1BBB1BFD010DC0AA1FBB1FEE1FC3
:101FC000FF1FA217B307E407F50720F0A21BB30B0E
:101FD000E40BF50B661F771F881F991F1A9469F78A
:101FE00060957095809590959B01AC01BD01CF01E6
:061FF0000895F894FFCFF4
:081FF6000100000000010201DE
:00000001FF
