:100000000C942A000C942D010C9458010C9483013B
:100010000C943C000C943C000C943C000C943C0070
:100020000C943C000C943C000C945C030C948703EF
:100030000C943C000C943C000C943C000C943C0050
:100040000C943C000C943C000C943C000C943C0040
:100050000C943C0011241FBECFE5D8E0DEBFCDBF1D
:1000600020E0A0E6B0E001C01D92A537B207E1F79D
:100070000E9462000C943A060C94000060E883E051
:100080000E945A00089560E883E00E9451004EE308
:1000900050E068EE73E080E090E00E94B2030895C3
:1000A000FFCF41E00E946700882311F081E00895AE
:1000B00080E008950E940B01882311F081E00895EB
:1000C00080E008950E9443000E945000FFCF8430DA
:1000D00008F093C0433008F092C0813051F138F0FD
:1000E000823009F448C0833009F466C08AC04111E7
:1000F00009C08AB3609586238ABB8BB368236BBB28
:1001000080E00895413029F48AB3682B6ABB80E00F
:100110000895423009F077C09AB3862F80959823CE
:100120009ABB9BB3692B6BBB99B3892389BB80E0D6
:100130000895411109C087B36095862387BB88B3B2
:10014000682368BB80E00895413029F487B3682BA9
:1001500067BB80E00895423009F057C097B3862FFF
:100160008095982397BB98B3692B68BB96B3892376
:1001700086BB80E00895411109C084B36095862351
:1001800084BB85B3682365BB80E00895413029F4C2
:1001900084B3682B64BB80E008954230C1F594B30A
:1001A000862F8095982394BB95B3692B65BB93B339
:1001B000892383BB80E00895411109C081B3609514
:1001C000862381BB82B3682362BB80E008954130FF
:1001D00029F481B3682B61BB80E008954230C9F4F3
:1001E00091B3862F8095982391BB92B3692B62BB04
:1001F00090B3892380BB80E0089581E0089581E079
:10020000089581E0089580E0089580E0089580E0F9
:10021000089580E008958430E0F4813059F028F0AA
:10022000823069F0833081F016C08BB368276BBBD6
:1002300080E0089588B3682768BB80E0089585B39F
:10024000682765BB80E0089582B3682762BB80E0C1
:10025000089581E0089581E008951F920F920FB6EE
:100260000F9211242F933F934F935F936F937F933C
:100270008F939F93AF93BF93EF93FF93E0916D00A4
:10028000F0916E0009958AB780648ABF7894FF91D7
:10029000EF91BF91AF919F918F917F916F915F91FE
:1002A0004F913F912F910F900FBE0F901F90189577
:1002B0001F920F920FB60F9211242F933F934F93DB
:1002C0005F936F937F938F939F93AF93BF93EF93BE
:1002D000FF93E0916B00F0916C0009958AB78068FC
:1002E0008ABF7894FF91EF91BF91AF919F918F91C9
:1002F0007F916F915F914F913F912F910F900FBE22
:100300000F901F9018951F920F920FB60F92112405
:100310002F933F934F935F936F937F938F939F930D
:10032000AF93BF93EF93FF93E0916900F0916A0060
:1003300009958AB780628ABF7894FF91EF91BF9147
:10034000AF919F918F917F916F915F914F913F916D
:100350002F910F900FBE0F901F9018958091650000
:1003600090916600A0916700B09168000196A11D70
:10037000B11D8093650090936600A0936700B093D1
:1003800068008091600082BF4091650050916600D6
:1003900060916700709168008091610090916200A7
:1003A000A0916300B0916400481759076A077B0762
:1003B00069F4109265001092660010926700109226
:1003C0006800E0916F00F0917000099508958F9298
:1003D0009F92AF92BF92CF92DF92EF92FF920F93D4
:1003E0001F93CF93DF93CDB7DEB72D970FB6F89459
:1003F000DEBF0FBECDBF8A010E94F40420E030E0D2
:100400004AE754E40E94530469837A838B839C8374
:100410001D82B80180E090E00E94F40420E034E204
:1004200044E759E40E9453046E837F838887998749
:100430006E817F818885998520E030E040E853E433
:100440000E94AB056A877B878C879D876A857B8541
:100450008C859D850E94C5040E94F40429813A81FF
:100460004B815C810E944E0481110EC081E090E0BE
:10047000A0E0B0E08093610090936200A0936300DD
:10048000B09364001D82B2C06A857B858C859D8592
:100490000E94C5040E94F40429813A814B815C8149
:1004A0000E94A605181604F581E090E0A0E0B0E0F7
:1004B0008093610090936200A0936300B093640006
:1004C0006A857B858C859D8529813A814B815C81FC
:1004D0000E94E1032E813F81488559850E94530483
:1004E0000E94C5046D8382C06A857B858C859D854D
:1004F0000E94C5040E94F40429813A814B815C81E9
:100500000E944E0488230CF071C069817A818B812E
:100510009C812A853B854C855D850E9453046B0137
:100520007C0169817A818B819C810E94C5044B0189
:100530005C016A857B858C859D850E94C5049B0135
:10054000AC01C501B4010E941806CA01B9010E949C
:10055000F4049B01AC01C701B6010E944E04811155
:100560000DC069817A818B819C812A853B854C8570
:100570005D850E9453040E94C50410C069817A8180
:100580008B819C812A853B854C855D850E94530427
:100590000E94C5046F5F7F4F8F4F9F4F6093610034
:1005A00070936200809363009093640069817A8104
:1005B0008B819C812E813F81488559850E945304FF
:1005C0006B017C0160916100709162008091630019
:1005D000909164000E94F4049B01AC01C701B60134
:1005E0000E9453040E94C50461956D838D812D96F0
:1005F0000FB6F894DEBF0FBECDBFDF91CF911F9134
:100600000F91FF90EF90DF90CF90BF90AF909F90B1
:100610008F9008950F931F936430E0F5611102C02D
:100620004430D0F5633010F44130C1F193B7A62FB8
:10063000A170B0E00024B695A7950794B695A7954C
:100640000794BA2FA02D9F7BA92BA3BF93B761FB63
:10065000EE27E0F9F0E0EE0FFF1FEE0FFF1FEE0FA9
:10066000FF1F977FE92BE3BF109374000093730083
:10067000309372002093710093B720E1429FA00154
:1006800011249F7C492B43BF82BF89B7816089BFFA
:1006900080E005C081E003C081E001C081E01F91DE
:1006A0000F910895883030F493B7987F892B83BFDA
:1006B00080E0089581E008951F920F920FB60F9287
:1006C00011242F933F934F935F936F937F938F9357
:1006D0009F93AF93BF93EF93FF93E0917300F091DB
:1006E0007400099588B7826088BF7894FF91EF9174
:1006F000BF91AF919F918F917F916F915F914F913A
:100700003F912F910F900FBE0F901F9018951F9241
:100710000F920FB60F9211242F933F934F935F9335
:100720006F937F938F939F93AF93BF93EF93FF93B9
:10073000E0917100F0917200099588B7816088BFDF
:100740007894FF91EF91BF91AF919F918F917F919D
:100750006F915F914F913F912F910F900FBE0F902E
:100760001F901895CF92DF92EF92FF920F931F93F5
:100770006B017C015093700040936F008EEA91E012
:1007800090937200809371008C019C0140E060E0C6
:1007900080E00E940A0340E054E0C701B6010E94D5
:1007A000E701809360008091600082BF85E00E9435
:1007B000520378941F910F91FF90EF90DF90CF90AC
:1007C00008955058BB27AA270E94F9030C946C0582
:1007D0000E945E0538F00E94650520F039F49F3FC5
:1007E00019F426F40C945B050EF4E095E7FB0C94E9
:1007F0005505E92F0E947D0558F3BA176207730764
:100800008407950720F079F4A6F50C949F050EF463
:10081000E0950B2EBA2FA02D0B01B90190010C0110
:10082000CA01A0011124FF27591B99F0593F50F428
:10083000503E68F11A16F040A22F232F342F442780
:10084000585FF3CF469537952795A795F040539578
:10085000C9F77EF41F16BA0B620B730B840BBAF048
:100860009150A1F0FF0FBB1F661F771F881FC2F7B3
:100870000EC0BA0F621F731F841F48F487957795C7
:100880006795B795F7959E3F08F0B0CF9395880F81
:1008900008F09927EE0F9795879508950E943105E6
:1008A00008F481E008950E9467040C946C050E948E
:1008B000650558F00E945E0540F029F45F3F29F07D
:1008C0000C94550551110C94A0050C945B050E94E5
:1008D0007D0568F39923B1F3552391F3951B550BCF
:1008E000BB27AA2762177307840738F09F5F5F4F03
:1008F000220F331F441FAA1FA9F335D00E2E3AF042
:10090000E0E832D091505040E695001CCAF72BD059
:10091000FE2F29D0660F771F881FBB1F26173707AA
:100920004807AB07B0E809F0BB0B802DBF01FF27DC
:1009300093585F4F3AF09E3F510578F00C9455055F
:100940000C94A0055F3FE4F3983ED4F38695779529
:100950006795B795F7959F5FC9F7880F911D969595
:10096000879597F90895E1E0660F771F881FBB1FF1
:10097000621773078407BA0720F0621B730B840B9E
:10098000BA0BEE1F88F7E09508950E94850588F060
:100990009F5798F0B92F9927B751B0F0E1F0660F43
:1009A000771F881F991F1AF0BA95C9F714C0B13084
:1009B00091F00E949F05B1E008950C949F05672F68
:1009C000782F8827B85F39F0B93FCCF386957795B3
:1009D0006795B395D9F73EF490958095709561959C
:1009E0007F4F8F4F9F4F0895E89409C097FB3EF4C7
:1009F00090958095709561957F4F8F4F9F4F99236C
:100A0000A9F0F92F96E9BB279395F69587957795E9
:100A10006795B795F111F8CFFAF4BB0F11F460FFA9
:100A20001BC06F5F7F4F8F4F9F4F16C0882311F001
:100A300096E911C0772321F09EE8872F762F05C015
:100A4000662371F096E8862F70E060E02AF09A95B0
:100A5000660F771F881FDAF7880F9695879597F9A5
:100A60000895990F0008550FAA0BE0E8FEEF16163F
:100A70001706E807F907C0F012161306E407F50792
:100A800098F0621B730B840B950B39F40A2661F006
:100A9000232B242B252B21F408950A2609F4A140A9
:100AA000A6958FEF811D811D089597F99F6780E8B6
:100AB00070E060E008959FEF80EC089500240A94B0
:100AC0001616170618060906089500240A94121629
:100AD0001306140605060895092E0394000C11F45C
:100AE000882352F0BB0F40F4BF2B11F460FF04C009
:100AF0006F5F7F4F8F4F9F4F089557FD9058440F62
:100B0000551F59F05F3F71F04795880F97FB991F6C
:100B100061F09F3F79F08795089512161306140629
:100B2000551FF2CF4695F1DF08C0161617061806B6
:100B3000991FF1CF86957105610508940895E89491
:100B4000BB2766277727CB0197F908950E943105C7
:100B500008F48FEF08950E94BE050C946C050E9466
:100B60005E0538F00E94650520F0952311F00C9485
:100B700055050C945B0511240C94A0050E947D057D
:100B800070F3959FC1F3950F50E0551F629FF001E0
:100B9000729FBB27F00DB11D639FAA27F00DB11DF9
:100BA000AA1F649F6627B00DA11D661F829F222782
:100BB000B00DA11D621F739FB00DA11D621F839F09
:100BC000A00D611D221F749F3327A00D611D231FDF
:100BD000849F600D211D822F762F6A2F11249F572D
:100BE00050409AF0F1F088234AF0EE0FFF1FBB1F30
:100BF000661F771F881F91505040A9F79E3F5105EF
:100C000080F00C9455050C94A0055F3FE4F3983EEA
:100C1000D4F3869577956795B795F795E7959F5F98
:100C2000C1F7FE2B880F911D9695879597F908952A
:100C3000A1E21A2EAA1BBB1BFD010DC0AA1FBB1FE0
:100C4000EE1FFF1FA217B307E407F50720F0A21B52
:100C5000B30BE40BF50B661F771F881F991F1A94BF
:100C600069F760957095809590959B01AC01BD01E9
:080C7000CF010895F894FFCFB5
:00000001FF
