S0180000656D6265646465642070726F6A6563742E73726563CB
S11300000C942A000C944C000C9477000C94A200DD
S11300100C943C000C943C000C943C000C943C006C
S11300200C943C000C943C000C94CD000C94F8000F
S11300300C943C000C943C000C943C000C943C004C
S11300400C943C000C943C000C943C000C943C003C
S11300500C943C0011241FBECFE5D8E0DEBFCDBF19
S113006020E0A0E6B0E001C01D92AA36B207E1F795
S11300700E943E000C9423010C940000CF93DF9364
S11300801F92CDB7DEB719828981806789838FB7C4
S1130090898389818FBFFFCF1F920F920FB60F9272
S11300A011242F933F934F935F936F937F938F9379
S11300B09F93AF93BF93EF93FF93E0916400F0910C
S11300C0650009958AB780648ABF7894FF91EF919F
S11300D0BF91AF919F918F917F916F915F914F915C
S11300E03F912F910F900FBE0F901F9018951F9264
S11300F00F920FB60F9211242F933F934F935F9358
S11301006F937F938F939F93AF93BF93EF93FF93DB
S1130110E0916200F091630009958AB780688ABF14
S11301207894FF91EF91BF91AF919F918F917F91BF
S11301306F915F914F913F912F910F900FBE0F9050
S11301401F9018951F920F920FB60F9211242F93A0
S11301503F934F935F936F937F938F939F93AF934B
S1130160BF93EF93FF93E0916000F09161000995D4
S11301708AB780628ABF7894FF91EF91BF91AF9163
S11301809F918F917F916F915F914F913F912F91AB
S11301900F900FBE0F901F9018951F920F920FB6DD
S11301A00F9211242F933F934F935F936F937F93F9
S11301B08F939F93AF93BF93EF93FF93E091660068
S11301C0F0916700099588B7816088BF7894FF91A2
S11301D0EF91BF91AF919F918F917F916F915F91BB
S11301E04F913F912F910F900FBE0F901F90189534
S11301F01F920F920FB60F9211242F933F934F9398
S11302005F936F937F938F939F93AF93BF93EF937A
S1130210FF93E0916800F0916900099588B78260C6
S113022088BF7894FF91EF91BF91AF919F918F9187
S11302307F916F915F914F913F912F910F900FBEDE
S10D02400F901F901895F894FFCF5B
S9030000FC
